{
	"contracts/SendTransfer.sol": {
		"ReceiveAction": {
			"abi": [
				{
					"inputs": [],
					"name": "balance",
					"outputs": [
						{
							"internalType": "uint256",
							"name": "",
							"type": "uint256"
						}
					],
					"stateMutability": "view",
					"type": "function"
				},
				{
					"inputs": [],
					"name": "balanceReceived",
					"outputs": [
						{
							"internalType": "uint256",
							"name": "",
							"type": "uint256"
						}
					],
					"stateMutability": "view",
					"type": "function"
				},
				{
					"stateMutability": "payable",
					"type": "receive"
				}
			],
			"devdoc": {
				"kind": "dev",
				"methods": {},
				"version": 1
			},
			"evm": {
				"assembly": "    /* \"contracts/SendTransfer.sol\":529:759  contract ReceiveAction {... */\n  mstore(0x40, 0x80)\n  callvalue\n  dup1\n  iszero\n  tag_1\n  jumpi\n  0x00\n  dup1\n  revert\ntag_1:\n  pop\n  dataSize(sub_0)\n  dup1\n  dataOffset(sub_0)\n  0x00\n  codecopy\n  0x00\n  return\nstop\n\nsub_0: assembly {\n        /* \"contracts/SendTransfer.sol\":529:759  contract ReceiveAction {... */\n      mstore(0x40, 0x80)\n      jumpi(tag_1, lt(calldatasize, 0x04))\n      shr(0xe0, calldataload(0x00))\n      dup1\n      0x52a90c42\n      eq\n      tag_3\n      jumpi\n      dup1\n      0xb69ef8a8\n      eq\n      tag_4\n      jumpi\n      jump(tag_2)\n    tag_1:\n      jumpi(tag_2, calldatasize)\n        /* \"contracts/SendTransfer.sol\":647:656  msg.value */\n      callvalue\n        /* \"contracts/SendTransfer.sol\":628:643  balanceReceived */\n      0x00\n      dup1\n        /* \"contracts/SendTransfer.sol\":628:656  balanceReceived += msg.value */\n      dup3\n      dup3\n      sload\n      tag_7\n      swap2\n      swap1\n      tag_8\n      jump\t// in\n    tag_7:\n      swap3\n      pop\n      pop\n      dup2\n      swap1\n      sstore\n      stop\n        /* \"contracts/SendTransfer.sol\":529:759  contract ReceiveAction {... */\n    tag_2:\n      0x00\n      dup1\n      revert\n        /* \"contracts/SendTransfer.sol\":558:585  uint public balanceReceived */\n    tag_3:\n      callvalue\n      dup1\n      iszero\n      tag_9\n      jumpi\n      0x00\n      dup1\n      revert\n    tag_9:\n      pop\n      tag_10\n      tag_11\n      jump\t// in\n    tag_10:\n      mload(0x40)\n      tag_12\n      swap2\n      swap1\n      tag_13\n      jump\t// in\n    tag_12:\n      mload(0x40)\n      dup1\n      swap2\n      sub\n      swap1\n      return\n        /* \"contracts/SendTransfer.sol\":668:757  function balance() public view returns(uint){... */\n    tag_4:\n      callvalue\n      dup1\n      iszero\n      tag_14\n      jumpi\n      0x00\n      dup1\n      revert\n    tag_14:\n      pop\n      tag_15\n      tag_16\n      jump\t// in\n    tag_15:\n      mload(0x40)\n      tag_17\n      swap2\n      swap1\n      tag_13\n      jump\t// in\n    tag_17:\n      mload(0x40)\n      dup1\n      swap2\n      sub\n      swap1\n      return\n        /* \"contracts/SendTransfer.sol\":558:585  uint public balanceReceived */\n    tag_11:\n      sload(0x00)\n      dup2\n      jump\t// out\n        /* \"contracts/SendTransfer.sol\":668:757  function balance() public view returns(uint){... */\n    tag_16:\n        /* \"contracts/SendTransfer.sol\":707:711  uint */\n      0x00\n        /* \"contracts/SendTransfer.sol\":729:750  address(this).balance */\n      selfbalance\n        /* \"contracts/SendTransfer.sol\":722:750  return address(this).balance */\n      swap1\n      pop\n        /* \"contracts/SendTransfer.sol\":668:757  function balance() public view returns(uint){... */\n      swap1\n      jump\t// out\n        /* \"#utility.yul\":7:84   */\n    tag_19:\n        /* \"#utility.yul\":44:51   */\n      0x00\n        /* \"#utility.yul\":73:78   */\n      dup2\n        /* \"#utility.yul\":62:78   */\n      swap1\n      pop\n        /* \"#utility.yul\":7:84   */\n      swap2\n      swap1\n      pop\n      jump\t// out\n        /* \"#utility.yul\":90:270   */\n    tag_20:\n        /* \"#utility.yul\":138:215   */\n      0x4e487b7100000000000000000000000000000000000000000000000000000000\n        /* \"#utility.yul\":135:136   */\n      0x00\n        /* \"#utility.yul\":128:216   */\n      mstore\n        /* \"#utility.yul\":235:239   */\n      0x11\n        /* \"#utility.yul\":232:233   */\n      0x04\n        /* \"#utility.yul\":225:240   */\n      mstore\n        /* \"#utility.yul\":259:263   */\n      0x24\n        /* \"#utility.yul\":256:257   */\n      0x00\n        /* \"#utility.yul\":249:264   */\n      revert\n        /* \"#utility.yul\":276:581   */\n    tag_8:\n        /* \"#utility.yul\":316:319   */\n      0x00\n        /* \"#utility.yul\":335:355   */\n      tag_26\n        /* \"#utility.yul\":353:354   */\n      dup3\n        /* \"#utility.yul\":335:355   */\n      tag_19\n      jump\t// in\n    tag_26:\n        /* \"#utility.yul\":330:355   */\n      swap2\n      pop\n        /* \"#utility.yul\":369:389   */\n      tag_27\n        /* \"#utility.yul\":387:388   */\n      dup4\n        /* \"#utility.yul\":369:389   */\n      tag_19\n      jump\t// in\n    tag_27:\n        /* \"#utility.yul\":364:389   */\n      swap3\n      pop\n        /* \"#utility.yul\":523:524   */\n      dup3\n        /* \"#utility.yul\":455:521   */\n      0xffffffffffffffffffffffffffffffffffffffffffffffffffffffffffffffff\n        /* \"#utility.yul\":451:525   */\n      sub\n        /* \"#utility.yul\":448:449   */\n      dup3\n        /* \"#utility.yul\":445:526   */\n      gt\n        /* \"#utility.yul\":442:549   */\n      iszero\n      tag_28\n      jumpi\n        /* \"#utility.yul\":529:547   */\n      tag_29\n      tag_20\n      jump\t// in\n    tag_29:\n        /* \"#utility.yul\":442:549   */\n    tag_28:\n        /* \"#utility.yul\":573:574   */\n      dup3\n        /* \"#utility.yul\":570:571   */\n      dup3\n        /* \"#utility.yul\":566:575   */\n      add\n        /* \"#utility.yul\":559:575   */\n      swap1\n      pop\n        /* \"#utility.yul\":276:581   */\n      swap3\n      swap2\n      pop\n      pop\n      jump\t// out\n        /* \"#utility.yul\":587:705   */\n    tag_21:\n        /* \"#utility.yul\":674:698   */\n      tag_31\n        /* \"#utility.yul\":692:697   */\n      dup2\n        /* \"#utility.yul\":674:698   */\n      tag_19\n      jump\t// in\n    tag_31:\n        /* \"#utility.yul\":669:672   */\n      dup3\n        /* \"#utility.yul\":662:699   */\n      mstore\n        /* \"#utility.yul\":587:705   */\n      pop\n      pop\n      jump\t// out\n        /* \"#utility.yul\":711:933   */\n    tag_13:\n        /* \"#utility.yul\":804:808   */\n      0x00\n        /* \"#utility.yul\":842:844   */\n      0x20\n        /* \"#utility.yul\":831:840   */\n      dup3\n        /* \"#utility.yul\":827:845   */\n      add\n        /* \"#utility.yul\":819:845   */\n      swap1\n      pop\n        /* \"#utility.yul\":855:926   */\n      tag_33\n        /* \"#utility.yul\":923:924   */\n      0x00\n        /* \"#utility.yul\":912:921   */\n      dup4\n        /* \"#utility.yul\":908:925   */\n      add\n        /* \"#utility.yul\":899:905   */\n      dup5\n        /* \"#utility.yul\":855:926   */\n      tag_21\n      jump\t// in\n    tag_33:\n        /* \"#utility.yul\":711:933   */\n      swap3\n      swap2\n      pop\n      pop\n      jump\t// out\n\n    auxdata: 0xa2646970667358221220cc95fcfa105c3a744a55c99e291766a5234c24c12ad25bec5bc3706cbc4f1ade64736f6c634300080f0033\n}\n",
				"bytecode": {
					"linkReferences": {},
					"object": "608060405234801561001057600080fd5b506101a3806100206000396000f3fe60806040526004361061002d5760003560e01c806352a90c4214610050578063b69ef8a81461007b5761004b565b3661004b573460008082825461004391906100ed565b925050819055005b600080fd5b34801561005c57600080fd5b506100656100a6565b6040516100729190610152565b60405180910390f35b34801561008757600080fd5b506100906100ac565b60405161009d9190610152565b60405180910390f35b60005481565b600047905090565b6000819050919050565b7f4e487b7100000000000000000000000000000000000000000000000000000000600052601160045260246000fd5b60006100f8826100b4565b9150610103836100b4565b9250827fffffffffffffffffffffffffffffffffffffffffffffffffffffffffffffffff03821115610138576101376100be565b5b828201905092915050565b61014c816100b4565b82525050565b60006020820190506101676000830184610143565b9291505056fea2646970667358221220cc95fcfa105c3a744a55c99e291766a5234c24c12ad25bec5bc3706cbc4f1ade64736f6c634300080f0033",
					"opcodes": "PUSH1 0x80 PUSH1 0x40 MSTORE CALLVALUE DUP1 ISZERO PUSH2 0x10 JUMPI PUSH1 0x0 DUP1 REVERT JUMPDEST POP PUSH2 0x1A3 DUP1 PUSH2 0x20 PUSH1 0x0 CODECOPY PUSH1 0x0 RETURN INVALID PUSH1 0x80 PUSH1 0x40 MSTORE PUSH1 0x4 CALLDATASIZE LT PUSH2 0x2D JUMPI PUSH1 0x0 CALLDATALOAD PUSH1 0xE0 SHR DUP1 PUSH4 0x52A90C42 EQ PUSH2 0x50 JUMPI DUP1 PUSH4 0xB69EF8A8 EQ PUSH2 0x7B JUMPI PUSH2 0x4B JUMP JUMPDEST CALLDATASIZE PUSH2 0x4B JUMPI CALLVALUE PUSH1 0x0 DUP1 DUP3 DUP3 SLOAD PUSH2 0x43 SWAP2 SWAP1 PUSH2 0xED JUMP JUMPDEST SWAP3 POP POP DUP2 SWAP1 SSTORE STOP JUMPDEST PUSH1 0x0 DUP1 REVERT JUMPDEST CALLVALUE DUP1 ISZERO PUSH2 0x5C JUMPI PUSH1 0x0 DUP1 REVERT JUMPDEST POP PUSH2 0x65 PUSH2 0xA6 JUMP JUMPDEST PUSH1 0x40 MLOAD PUSH2 0x72 SWAP2 SWAP1 PUSH2 0x152 JUMP JUMPDEST PUSH1 0x40 MLOAD DUP1 SWAP2 SUB SWAP1 RETURN JUMPDEST CALLVALUE DUP1 ISZERO PUSH2 0x87 JUMPI PUSH1 0x0 DUP1 REVERT JUMPDEST POP PUSH2 0x90 PUSH2 0xAC JUMP JUMPDEST PUSH1 0x40 MLOAD PUSH2 0x9D SWAP2 SWAP1 PUSH2 0x152 JUMP JUMPDEST PUSH1 0x40 MLOAD DUP1 SWAP2 SUB SWAP1 RETURN JUMPDEST PUSH1 0x0 SLOAD DUP2 JUMP JUMPDEST PUSH1 0x0 SELFBALANCE SWAP1 POP SWAP1 JUMP JUMPDEST PUSH1 0x0 DUP2 SWAP1 POP SWAP2 SWAP1 POP JUMP JUMPDEST PUSH32 0x4E487B7100000000000000000000000000000000000000000000000000000000 PUSH1 0x0 MSTORE PUSH1 0x11 PUSH1 0x4 MSTORE PUSH1 0x24 PUSH1 0x0 REVERT JUMPDEST PUSH1 0x0 PUSH2 0xF8 DUP3 PUSH2 0xB4 JUMP JUMPDEST SWAP2 POP PUSH2 0x103 DUP4 PUSH2 0xB4 JUMP JUMPDEST SWAP3 POP DUP3 PUSH32 0xFFFFFFFFFFFFFFFFFFFFFFFFFFFFFFFFFFFFFFFFFFFFFFFFFFFFFFFFFFFFFFFF SUB DUP3 GT ISZERO PUSH2 0x138 JUMPI PUSH2 0x137 PUSH2 0xBE JUMP JUMPDEST JUMPDEST DUP3 DUP3 ADD SWAP1 POP SWAP3 SWAP2 POP POP JUMP JUMPDEST PUSH2 0x14C DUP2 PUSH2 0xB4 JUMP JUMPDEST DUP3 MSTORE POP POP JUMP JUMPDEST PUSH1 0x0 PUSH1 0x20 DUP3 ADD SWAP1 POP PUSH2 0x167 PUSH1 0x0 DUP4 ADD DUP5 PUSH2 0x143 JUMP JUMPDEST SWAP3 SWAP2 POP POP JUMP INVALID LOG2 PUSH5 0x6970667358 0x22 SLT KECCAK256 0xCC SWAP6 0xFC STATICCALL LT 0x5C GASPRICE PUSH21 0x4A55C99E291766A5234C24C12AD25BEC5BC3706CBC 0x4F BYTE 0xDE PUSH5 0x736F6C6343 STOP ADDMOD 0xF STOP CALLER "
				},
				"gasEstimates": {
					"creation": {
						"codeDepositCost": "83800",
						"executionCost": "135",
						"totalCost": "83935"
					},
					"external": {
						"balance()": "339",
						"balanceReceived()": "2407"
					}
				},
				"methodIdentifiers": {
					"balance()": "b69ef8a8",
					"balanceReceived()": "52a90c42"
				}
			},
			"storageLayout": {
				"storage": [
					{
						"astId": 55,
						"contract": "contracts/SendTransfer.sol:ReceiveAction",
						"label": "balanceReceived",
						"offset": 0,
						"slot": "0",
						"type": "t_uint256"
					}
				],
				"types": {
					"t_uint256": {
						"encoding": "inplace",
						"label": "uint256",
						"numberOfBytes": "32"
					}
				}
			},
			"userdoc": {
				"kind": "user",
				"methods": {},
				"version": 1
			}
		}
	}
}